{
  "_format": "hh-sol-artifact-1",
  "contractName": "Equity",
  "sourceName": "contracts/Equity.sol",
  "abi": [
    {
      "inputs": [
        {
          "internalType": "address",
          "name": "_tokenAddress",
          "type": "address"
        }
      ],
      "stateMutability": "nonpayable",
      "type": "constructor"
    },
    {
      "anonymous": false,
      "inputs": [
        {
          "indexed": true,
          "internalType": "address",
          "name": "user",
          "type": "address"
        }
      ],
      "name": "Deposit",
      "type": "event"
    },
    {
      "anonymous": false,
      "inputs": [
        {
          "indexed": true,
          "internalType": "address",
          "name": "user",
          "type": "address"
        },
        {
          "indexed": false,
          "internalType": "uint256",
          "name": "amount",
          "type": "uint256"
        }
      ],
      "name": "TokensReturnedToUser",
      "type": "event"
    },
    {
      "anonymous": false,
      "inputs": [
        {
          "indexed": true,
          "internalType": "address",
          "name": "user",
          "type": "address"
        },
        {
          "indexed": false,
          "internalType": "uint256",
          "name": "amount",
          "type": "uint256"
        }
      ],
      "name": "TokensTransferredToOwner",
      "type": "event"
    },
    {
      "anonymous": false,
      "inputs": [
        {
          "indexed": true,
          "internalType": "address",
          "name": "user",
          "type": "address"
        },
        {
          "indexed": false,
          "internalType": "uint256",
          "name": "targetAmount",
          "type": "uint256"
        },
        {
          "indexed": false,
          "internalType": "uint256",
          "name": "interval",
          "type": "uint256"
        },
        {
          "indexed": false,
          "internalType": "uint256",
          "name": "depositAmount",
          "type": "uint256"
        }
      ],
      "name": "UserInitialized",
      "type": "event"
    },
    {
      "stateMutability": "payable",
      "type": "fallback"
    },
    {
      "inputs": [],
      "name": "deposit",
      "outputs": [],
      "stateMutability": "nonpayable",
      "type": "function"
    },
    {
      "inputs": [],
      "name": "getContractTokenBalance",
      "outputs": [
        {
          "internalType": "uint256",
          "name": "",
          "type": "uint256"
        }
      ],
      "stateMutability": "view",
      "type": "function"
    },
    {
      "inputs": [
        {
          "internalType": "address",
          "name": "userAddress",
          "type": "address"
        }
      ],
      "name": "getUserInfo",
      "outputs": [
        {
          "internalType": "uint256",
          "name": "targetAmount",
          "type": "uint256"
        },
        {
          "internalType": "uint256",
          "name": "intervalEndTime",
          "type": "uint256"
        },
        {
          "internalType": "uint256",
          "name": "totalDeposits",
          "type": "uint256"
        },
        {
          "internalType": "uint256",
          "name": "interval",
          "type": "uint256"
        },
        {
          "internalType": "uint256",
          "name": "depositAmount",
          "type": "uint256"
        }
      ],
      "stateMutability": "view",
      "type": "function"
    },
    {
      "inputs": [
        {
          "internalType": "address",
          "name": "loser",
          "type": "address"
        }
      ],
      "name": "lose",
      "outputs": [],
      "stateMutability": "nonpayable",
      "type": "function"
    },
    {
      "inputs": [],
      "name": "owner",
      "outputs": [
        {
          "internalType": "address",
          "name": "",
          "type": "address"
        }
      ],
      "stateMutability": "view",
      "type": "function"
    },
    {
      "inputs": [
        {
          "internalType": "uint256",
          "name": "amount",
          "type": "uint256"
        },
        {
          "internalType": "uint256",
          "name": "_targetAmount",
          "type": "uint256"
        },
        {
          "internalType": "uint256",
          "name": "_interval",
          "type": "uint256"
        }
      ],
      "name": "start",
      "outputs": [],
      "stateMutability": "nonpayable",
      "type": "function"
    },
    {
      "inputs": [],
      "name": "token",
      "outputs": [
        {
          "internalType": "contract IERC20",
          "name": "",
          "type": "address"
        }
      ],
      "stateMutability": "view",
      "type": "function"
    },
    {
      "inputs": [
        {
          "internalType": "address",
          "name": "",
          "type": "address"
        }
      ],
      "name": "users",
      "outputs": [
        {
          "internalType": "uint256",
          "name": "targetAmount",
          "type": "uint256"
        },
        {
          "internalType": "uint256",
          "name": "intervalEndTime",
          "type": "uint256"
        },
        {
          "internalType": "uint256",
          "name": "totalDeposits",
          "type": "uint256"
        },
        {
          "internalType": "uint256",
          "name": "interval",
          "type": "uint256"
        },
        {
          "internalType": "uint256",
          "name": "depositAmount",
          "type": "uint256"
        }
      ],
      "stateMutability": "view",
      "type": "function"
    },
    {
      "stateMutability": "payable",
      "type": "receive"
    }
  ],
  "bytecode": "0x608060405234801561001057600080fd5b506040516118de3803806118de8339818101604052810190610032919061011c565b336000806101000a81548173ffffffffffffffffffffffffffffffffffffffff021916908373ffffffffffffffffffffffffffffffffffffffff16021790555080600160006101000a81548173ffffffffffffffffffffffffffffffffffffffff021916908373ffffffffffffffffffffffffffffffffffffffff16021790555050610149565b600080fd5b600073ffffffffffffffffffffffffffffffffffffffff82169050919050565b60006100e9826100be565b9050919050565b6100f9816100de565b811461010457600080fd5b50565b600081519050610116816100f0565b92915050565b600060208284031215610132576101316100b9565b5b600061014084828501610107565b91505092915050565b611786806101586000396000f3fe60806040526004361061007f5760003560e01c80638da5cb5b1161004e5780638da5cb5b146101b8578063a87430ba146101e3578063d0e30db014610224578063fc0c546a1461023b576100bf565b80632e94d7d5146100fa578063317d9453146101235780636386c1c71461014e578063641ccd831461018f576100bf565b366100bf576040517f08c379a00000000000000000000000000000000000000000000000000000000081526004016100b690610e9d565b60405180910390fd5b6040517f08c379a00000000000000000000000000000000000000000000000000000000081526004016100f190610e9d565b60405180910390fd5b34801561010657600080fd5b50610121600480360381019061011c9190610f20565b610266565b005b34801561012f57600080fd5b50610138610573565b6040516101459190610f66565b60405180910390f35b34801561015a57600080fd5b5061017560048036038101906101709190610f20565b610616565b604051610186959493929190610f81565b60405180910390f35b34801561019b57600080fd5b506101b660048036038101906101b19190611000565b61068d565b005b3480156101c457600080fd5b506101cd61092c565b6040516101da9190611062565b60405180910390f35b3480156101ef57600080fd5b5061020a60048036038101906102059190610f20565b610950565b60405161021b959493929190610f81565b60405180910390f35b34801561023057600080fd5b50610239610986565b005b34801561024757600080fd5b50610250610e1a565b60405161025d91906110dc565b60405180910390f35b60004290506000600260008473ffffffffffffffffffffffffffffffffffffffff1673ffffffffffffffffffffffffffffffffffffffff16815260200190815260200160002090508060010154821180156102c657506000816001015414155b610305576040517f08c379a00000000000000000000000000000000000000000000000000000000081526004016102fc90611143565b60405180910390fd5b8060020154600160009054906101000a900473ffffffffffffffffffffffffffffffffffffffff1673ffffffffffffffffffffffffffffffffffffffff166370a08231306040518263ffffffff1660e01b81526004016103659190611062565b602060405180830381865afa158015610382573d6000803e3d6000fd5b505050506040513d601f19601f820116820180604052508101906103a69190611178565b10156103e7576040517f08c379a00000000000000000000000000000000000000000000000000000000081526004016103de906111f1565b60405180910390fd5b600160009054906101000a900473ffffffffffffffffffffffffffffffffffffffff1673ffffffffffffffffffffffffffffffffffffffff1663a9059cbb60008054906101000a900473ffffffffffffffffffffffffffffffffffffffff1683600201546040518363ffffffff1660e01b8152600401610468929190611211565b6020604051808303816000875af1158015610487573d6000803e3d6000fd5b505050506040513d601f19601f820116820180604052508101906104ab9190611272565b6104ea576040517f08c379a00000000000000000000000000000000000000000000000000000000081526004016104e1906112eb565b60405180910390fd5b8273ffffffffffffffffffffffffffffffffffffffff167fee9ddddb5d196bdae24427887fd4d11aa2db31074b90b5f21a8ce32af756669f82600201546040516105349190610f66565b60405180910390a26000816000018190555060008160030181905550600081600201819055506000816001018190555060008160040181905550505050565b6000600160009054906101000a900473ffffffffffffffffffffffffffffffffffffffff1673ffffffffffffffffffffffffffffffffffffffff166370a08231306040518263ffffffff1660e01b81526004016105d09190611062565b602060405180830381865afa1580156105ed573d6000803e3d6000fd5b505050506040513d601f19601f820116820180604052508101906106119190611178565b905090565b600080600080600080600260008873ffffffffffffffffffffffffffffffffffffffff1673ffffffffffffffffffffffffffffffffffffffff168152602001908152602001600020905080600001548160010154826002015483600301548460040154955095509550955095505091939590929450565b6000600260003373ffffffffffffffffffffffffffffffffffffffff1673ffffffffffffffffffffffffffffffffffffffff168152602001908152602001600020905060004290508082600101541080156106ed57506000826001015414155b8015610700575081600201548260000154115b1561070f5761070e33610266565b5b60008514158015610721575060008414155b801561072e575060008314155b61076d576040517f08c379a000000000000000000000000000000000000000000000000000000000815260040161076490611357565b60405180910390fd5b8385106107af576040517f08c379a00000000000000000000000000000000000000000000000000000000081526004016107a6906113e9565b60405180910390fd5b600160009054906101000a900473ffffffffffffffffffffffffffffffffffffffff1673ffffffffffffffffffffffffffffffffffffffff166323b872dd3330886040518463ffffffff1660e01b815260040161080e93929190611409565b6020604051808303816000875af115801561082d573d6000803e3d6000fd5b505050506040513d601f19601f820116820180604052508101906108519190611272565b610890576040517f08c379a00000000000000000000000000000000000000000000000000000000081526004016108879061148c565b60405180910390fd5b8382600001819055508282600301819055508482600201819055508482600401819055508283426108c191906114db565b6108cb91906114db565b82600101819055503373ffffffffffffffffffffffffffffffffffffffff167f1fc2cc41d6beff2901c69ad6a02e35ad42ccbee87a53f91ea7523f8632fcd52e85858860405161091d9392919061150f565b60405180910390a25050505050565b60008054906101000a900473ffffffffffffffffffffffffffffffffffffffff1681565b60026020528060005260406000206000915090508060000154908060010154908060020154908060030154908060040154905085565b6000600260003373ffffffffffffffffffffffffffffffffffffffff1673ffffffffffffffffffffffffffffffffffffffff1681526020019081526020016000209050600042905080826001015411806109e7575081600001548260020154105b610a26576040517f08c379a0000000000000000000000000000000000000000000000000000000008152600401610a1d90611592565b60405180910390fd5b81600301548260010154610a3a91906115b2565b8111610a7b576040517f08c379a0000000000000000000000000000000000000000000000000000000008152600401610a7290611658565b60405180910390fd5b600160009054906101000a900473ffffffffffffffffffffffffffffffffffffffff1673ffffffffffffffffffffffffffffffffffffffff166323b872dd333085600401546040518463ffffffff1660e01b8152600401610ade93929190611409565b6020604051808303816000875af1158015610afd573d6000803e3d6000fd5b505050506040513d601f19601f82011682018060405250810190610b219190611272565b610b60576040517f08c379a0000000000000000000000000000000000000000000000000000000008152600401610b57906116c4565b60405180910390fd5b8160040154826002016000828254610b7891906114db565b925050819055508160000154826002015410610db3578160020154600160009054906101000a900473ffffffffffffffffffffffffffffffffffffffff1673ffffffffffffffffffffffffffffffffffffffff166370a08231306040518263ffffffff1660e01b8152600401610bee9190611062565b602060405180830381865afa158015610c0b573d6000803e3d6000fd5b505050506040513d601f19601f82011682018060405250810190610c2f9190611178565b1015610c70576040517f08c379a0000000000000000000000000000000000000000000000000000000008152600401610c67906111f1565b60405180910390fd5b600160009054906101000a900473ffffffffffffffffffffffffffffffffffffffff1673ffffffffffffffffffffffffffffffffffffffff1663a9059cbb3384600201546040518363ffffffff1660e01b8152600401610cd1929190611211565b6020604051808303816000875af1158015610cf0573d6000803e3d6000fd5b505050506040513d601f19601f82011682018060405250810190610d149190611272565b610d53576040517f08c379a0000000000000000000000000000000000000000000000000000000008152600401610d4a90611730565b60405180910390fd5b8082600101819055503373ffffffffffffffffffffffffffffffffffffffff167f93605c4a52a0a1dd7bc7e907e4ec1b33fd0a85921339418d332296988112fb5d8360020154604051610da69190610f66565b60405180910390a2610e16565b8160030154826001016000828254610dcb91906114db565b925050819055503373ffffffffffffffffffffffffffffffffffffffff167f8ce0bd46ec50cf39f0d0ea8686a686eb226af5796dcda4231b26fb84b5ef123460405160405180910390a25b5050565b600160009054906101000a900473ffffffffffffffffffffffffffffffffffffffff1681565b600082825260208201905092915050565b7f436f6e747261637420646f6573206e6f74206163636570742045544800000000600082015250565b6000610e87601c83610e40565b9150610e9282610e51565b602082019050919050565b60006020820190508181036000830152610eb681610e7a565b9050919050565b600080fd5b600073ffffffffffffffffffffffffffffffffffffffff82169050919050565b6000610eed82610ec2565b9050919050565b610efd81610ee2565b8114610f0857600080fd5b50565b600081359050610f1a81610ef4565b92915050565b600060208284031215610f3657610f35610ebd565b5b6000610f4484828501610f0b565b91505092915050565b6000819050919050565b610f6081610f4d565b82525050565b6000602082019050610f7b6000830184610f57565b92915050565b600060a082019050610f966000830188610f57565b610fa36020830187610f57565b610fb06040830186610f57565b610fbd6060830185610f57565b610fca6080830184610f57565b9695505050505050565b610fdd81610f4d565b8114610fe857600080fd5b50565b600081359050610ffa81610fd4565b92915050565b60008060006060848603121561101957611018610ebd565b5b600061102786828701610feb565b935050602061103886828701610feb565b925050604061104986828701610feb565b9150509250925092565b61105c81610ee2565b82525050565b60006020820190506110776000830184611053565b92915050565b6000819050919050565b60006110a261109d61109884610ec2565b61107d565b610ec2565b9050919050565b60006110b482611087565b9050919050565b60006110c6826110a9565b9050919050565b6110d6816110bb565b82525050565b60006020820190506110f160008301846110cd565b92915050565b7f75736572206e6f74206c61746500000000000000000000000000000000000000600082015250565b600061112d600d83610e40565b9150611138826110f7565b602082019050919050565b6000602082019050818103600083015261115c81611120565b9050919050565b60008151905061117281610fd4565b92915050565b60006020828403121561118e5761118d610ebd565b5b600061119c84828501611163565b91505092915050565b7f4e6f7420656e6f75676820746f6b656e7320696e20636f6e7472616374000000600082015250565b60006111db601d83610e40565b91506111e6826111a5565b602082019050919050565b6000602082019050818103600083015261120a816111ce565b9050919050565b60006040820190506112266000830185611053565b6112336020830184610f57565b9392505050565b60008115159050919050565b61124f8161123a565b811461125a57600080fd5b50565b60008151905061126c81611246565b92915050565b60006020828403121561128857611287610ebd565b5b60006112968482850161125d565b91505092915050565b7f5472616e7366657220746f206f776e6572206661696c65642e00000000000000600082015250565b60006112d5601983610e40565b91506112e08261129f565b602082019050919050565b60006020820190508181036000830152611304816112c8565b9050919050565b7f6e6f742030000000000000000000000000000000000000000000000000000000600082015250565b6000611341600583610e40565b915061134c8261130b565b602082019050919050565b6000602082019050818103600083015261137081611334565b9050919050565b7f54617267657420616d6f756e74206d757374206265206869676865722074686160008201527f6e206465706f73697420616d6f756e742e000000000000000000000000000000602082015250565b60006113d3603183610e40565b91506113de82611377565b604082019050919050565b60006020820190508181036000830152611402816113c6565b9050919050565b600060608201905061141e6000830186611053565b61142b6020830185611053565b6114386040830184610f57565b949350505050565b7f496e697469616c20746f6b656e207472616e73666572206661696c65642e0000600082015250565b6000611476601e83610e40565b915061148182611440565b602082019050919050565b600060208201905081810360008301526114a581611469565b9050919050565b7f4e487b7100000000000000000000000000000000000000000000000000000000600052601160045260246000fd5b60006114e682610f4d565b91506114f183610f4d565b9250828201905080821115611509576115086114ac565b5b92915050565b60006060820190506115246000830186610f57565b6115316020830185610f57565b61153e6040830184610f57565b949350505050565b7f596f75206d75737420696e697469616c20636f6e74726163742e000000000000600082015250565b600061157c601a83610e40565b915061158782611546565b602082019050919050565b600060208201905081810360008301526115ab8161156f565b9050919050565b60006115bd82610f4d565b91506115c883610f4d565b92508282039050818111156115e0576115df6114ac565b5b92915050565b7f596f752063616e6e6f74206465706f736974206265666f726520696e7465727660008201527f616c2074696d652e000000000000000000000000000000000000000000000000602082015250565b6000611642602883610e40565b915061164d826115e6565b604082019050919050565b6000602082019050818103600083015261167181611635565b9050919050565b7f546f6b656e207472616e73666572206661696c65642e00000000000000000000600082015250565b60006116ae601683610e40565b91506116b982611678565b602082019050919050565b600060208201905081810360008301526116dd816116a1565b9050919050565b7f52657475726e20746f6b656e73206661696c65642e0000000000000000000000600082015250565b600061171a601583610e40565b9150611725826116e4565b602082019050919050565b600060208201905081810360008301526117498161170d565b905091905056fea2646970667358221220447bf06992c7150d3681308f7556282e2aeb1ff9518fdd61e055fbf1731b67f364736f6c634300081c0033",
  "linkReferences": {},
  "deployedLinkReferences": {}
}